:100000000C9422020C944A020C944A020C944A0268
:100010000C944A020C944A020C944A020C944A0230
:100020000C944A020C944A020C945B0B0C94CA0B7D
:100030000C944A020C944A020C944A020C944A0210
:100040000C944A020C944A020C944A020C944A0200
:100050000C944A020C944A020C944A020C94110B20
:100060000C944A020C944A020C944A020C944A02E0
:100070000C944A020C944A020C944A020C944A02D0
:100080000C944A020C944A020C944A020C944A02C0
:100090000C944A020C944A020C944A020C944A02B0
:1000A0000C944A020C944A020C944A02000000008C
:1000B0000000000000000000000000002A002B00EB
:1000C0002800000000000000000000000000000008
:1000D0000000000000000000000000000000000020
:1000E0000000000000000000000000002C001E02C4
:1000F00034022002210222022402340026022702B6
:1001000025022E0236002D003700380027001E0081
:100110001F002000210022002300240025002600CB
:100120003302330036022E00370238021F02040267
:10013000050206020702080209020A020B020C026B
:100140000D020E020F02100211021202130214021B
:10015000150216021702180219021A021B021C02CB
:100160001D022F003100300023022D023500040053
:10017000050006000700080009000A000B000C003B
:100180000D000E000F0010001100120013001400EB
:10019000150016001700180019001A001B001C009B
:1001A0001D002F0231023002350200000000000065
:1001B000000000000000000000000000000000003F
:1001C000000000000000000000000000000000002F
:1001D000000000000000000000000000000000001F
:1001E000000000000000000000000000000000000F
:1001F00000000000000000000000000000000000FF
:1002000000000000000000000000000000000000EE
:1002100000000000000000000000000000000000DE
:1002200000000000000000000000000000000000CE
:1002300000000000000000000000000000000000BE
:1002400000000000000000000000000000000000AE
:10025000000000000000000000000000000000009E
:10026000000000000000000000000000000000008E
:10027000000000000000000000000000000000007E
:10028000000000000000000000000000000000006E
:10029000000000000000000000000000000000005E
:1002A0000000000000000000000000000501090639
:1002B000A101050719E029E7150025017501950839
:1002C0008102050C95017508150026FF001900290B
:1002D000FF8100050819012908950875019102059B
:1002E0000795067508150026E700190029E7810023
:1002F000C0080B0002020200000904000001020213
:100300000000052400100105240101010424020657
:1003100005240600010705810310004009040100BF
:10032000020A0000000705020240000007058302E0
:100330004000000403090412010002EF02014041E1
:1003400023368000010102030141726475696E6FFA
:10035000204C4C430041726475696E6F204C656F90
:100360006E6172646F0000000000240027002A0004
:100370002D00300000000000250028002B002E007A
:100380003100000000002300260029002C002F006F
:10039000040404040403040502020202040302022A
:1003A000020206060606060604040202020404040B
:1003B0000802011040804010204080408008020464
:1003C00001804020100201108010204040200000D9
:1003D000000200090F0000030401000C00000000EF
:1003E00000000000000000000000000000050109FE
:1003F00006A1018502050719E029E7150025017509
:100400000195088102050C95017508150026FF006D
:10041000190029FF8100050795067508150026E7D4
:1004200000190029E78100C0050C0901A10185041C
:10043000150026FF0319002AFF039504751081009B
:10044000C000030E11241FBECFEFDAE0DEBFCDBF28
:1004500012E0A0E0B1E0EEE5F3E202C005900D92FB
:10046000A231B107D9F723E0A2E1B2E001C01D92A9
:10047000A935B207E1F712E0C2E2D2E004C0219749
:10048000FE010E94A711C132D107C9F70E94210FB6
:100490000C94AD110C94000096E0899FD0011124BA
:1004A000A651BD4F90967C936E935F9791E0919685
:1004B0009C939197E0915703F091580390915603C4
:1004C000992339F0309751F0811108C080910603CB
:1004D0000994309719F05C968C91FACF0895CF92D9
:1004E000DF92EF92FF920F931F9396E0899FF001A6
:1004F0001124E651FD4F11A2278D30A12130310585
:1005000051F178F02230310509F451C02330310522
:1005100009F452C01F910F91FF90EF90DF90CF90A0
:1005200008956623B9F361E070E00E944C022FB792
:10053000F8948091460290914702A0914802B091B0
:1005400049022FBF8093420390934303A093440337
:10055000B0934503DFCF9FB7F894C0904602D09088
:100560004702E0904802F09049029FBF0091420389
:10057000109143032091440330914503C01AD10ADE
:10058000E20AF30A009154031091550330E020E091
:100590000C151D052E053F0550F462E070E01F911B
:1005A0000F91FF90EF90DF90CF900C944C0261116F
:1005B000B1CF63E070E0F3CF70E060E0F0CFFC011A
:1005C00080914502882311F13FB7F89482E080932F
:1005D000E9002091F200822F90E01816190614F419
:1005E00081E090E0882339F0289844E64093440263
:1005F0004091F1004083222339F02091F200211133
:1006000003C02BE62093E8003FBF08958FEF9FEFD4
:10061000089581508F3008F047C0E82FF0E0ED5E7C
:10062000FC4F0C94A71130033403220328032C033E
:1006300054035403540337033D03410345034B0361
:1006400054034F03809180008F778093800008953A
:10065000809180008F7DF9CF80918000877FF5CFDA
:1006600084B58F7784BD089584B58F7DFBCF80914D
:1006700090008F77809390000895809190008F7DF7
:10068000F9CF80919000877FF5CF8091C0008F7760
:100690008093C00008958091C0008F7DF9CF809134
:1006A000C200877F8093C2000895CF93DF93282FE5
:1006B00030E0F901E253FC4F8491F901E155FC4F20
:1006C000D491F901E057FC4FC491CC23A1F08111E2
:1006D0000E940903EC2FF0E0EE0FFF1FEE57FC4FD6
:1006E000A591B491EC91ED2381E090E009F480E0D4
:1006F000DF91CF91089580E090E0FACF1F93CF93E0
:10070000DF93282F30E0F901E253FC4F8491F90187
:10071000E155FC4FD491F901E057FC4FC491CC2333
:10072000A9F0162F81110E940903EC2FF0E0EE0FC3
:10073000FF1FEC58FC4FA591B4918FB7F894EC9142
:10074000111108C0D095DE23DC938FBFDF91CF91CC
:100750001F910895DE2BF8CFCF93DF9390E0FC013B
:10076000E155FC4F249180579C4FFC0184918823D4
:10077000C9F090E0880F991FFC01EA59FC4FA59140
:10078000B491FC01EC58FC4FC591D49161110DC09E
:100790009FB7F8948C91209582238C93888128238D
:1007A00028839FBFDF91CF910895623051F49FB7A6
:1007B000F8943C91822F809583238C93E8812E2B93
:1007C000EFCF8FB7F894EC912E2B2C938FBFEACFFD
:1007D0003FB7F8948091400290914102A09142026B
:1007E000B091430226B5A89B05C02F3F19F0019692
:1007F000A11DB11D3FBFBA2FA92F982F8827BC017B
:10080000CD01620F711D811D911D42E0660F771FA2
:10081000881F991F4A95D1F708958F929F92AF92A2
:10082000BF92CF92DF92EF92FF924B015C010E9448
:10083000E8036B017C010E94E8036C197D098E09B5
:100840009F09683E734081059105A8F321E0821A53
:100850009108A108B10888EEC80E83E0D81EE11CFB
:10086000F11C81149104A104B10429F7FF90EF90C9
:10087000DF90CF90BF90AF909F908F900895862F7C
:10088000642F0C94AC03862F642F0C947E03862F68
:100890000C9455034091390250913A02209137024D
:1008A0003091380242175307B4F49091E8009570E4
:1008B000E1F39091E80092FD19C08093F1008091DE
:1008C000390290913A0201968F739927892B19F476
:1008D0008EEF8093E8008091390290913A02019660
:1008E00090933A028093390281E0089580E0089560
:1008F000EF92FF920F931F93CF93DF93F82E192F50
:10090000E62E042F81E0860F880F0E944A0483E0C0
:100910000E944A04CF2DD12FEC0EFD2EF11CCE15D6
:10092000DF05B9F007FF13C0FE0184910E944A045D
:10093000182F80E00E944A04812321968111EFCF75
:10094000DF91CF911F910F91FF90EF9008958881D3
:10095000EDCF81E0F5CFDF92EF92FF920F931F93DF
:10096000CF93DF93D82E8A01EB017B01E40EF51EB5
:10097000CE15DF0559F0D7FE12C0FE0184910E940A
:100980004A0421968111F4CF0FEF1FEFC801DF91C8
:10099000CF911F910F91FF90EF90DF900895888184
:1009A000EECF2FB7F89487708093E9009091E8001C
:1009B000892F807295FF04C09091F20080E4891B1A
:1009C0002FBF08957F928F929F92AF92BF92CF9246
:1009D000DF92EF92FF920F931F93CF93DF93C82E76
:1009E0008B017A0180914502811110C08FEF9FEF3A
:1009F000DF91CF911F910F91FF90EF90DF90CF90FB
:100A0000BF90AF909F908F907F90089580913D020E
:100A100080FF05C08091E00082608093E000CE2DD1
:100A2000DF2DD12C8AEFB82E8C2D8770982E8C2D2F
:100A30008072882E8C2D8074782E9AE3A92E2097B0
:100A400019F4DD2009F452C08C2D0E94D1048111CB
:100A50000AC0BA94BB2051F261E070E080E090E0FF
:100A60000E940D04ECCF8C171D0611F00CF08C2F9A
:100A70009FB7F8949092E9002091E80025FD02C00C
:100A80009FBFDDCF282F30E0C21BD30B882029F079
:100A90008150A0F01092F100FBCFF801C7FC0AC012
:100AA000815050F041914093F100FACF449140932E
:100AB000F10031968150D0F7020F131FDD2021F095
:100AC000A092E800D12CDCCF8091E80085FD07C022
:100AD000A092E800DD24D394209791F2F3CF2097E1
:100AE00079F6772069F2A092E800CACF5D9884E693
:100AF00080933C02C7017CCF615030F02091F1001F
:100B0000FC0120830196F8CF289884E68093440264
:100B10000895AF92BF92DF92EF92FF920F931F93CF
:100B2000CF93DF935C018B01EB019BEFD92E2097D4
:100B3000C1F07E01C134D1051CF080E4E82EF12C17
:100B40008091E80082FFFCCFC8018C1B9D0B6E2DAD
:100B50008A0D9B1D0E947C05D092E800CE19DF090A
:100B6000E6CFC801DF91CF911F910F91FF90EF90D9
:100B7000DF90BF90AF900895AF92BF92CF92DF9277
:100B8000EF92FF920F931F93CF93DF936C017B0142
:100B90008B01040F151FEB015E01AE18BF08C017D3
:100BA000D10759F06991D601ED91FC910190F08146
:100BB000E02DC6010995892B79F7C501DF91CF9109
:100BC0001F910F91FF90EF90DF90CF90BF90AF906B
:100BD000089580912F0281110DC082E080932B0235
:100BE00084E080932C0210922E0210922D0281E05C
:100BF00080932F028BE292E008950F931F93CF937F
:100C0000DF931F92CDB7DEB782E0898342E450E0E4
:100C100061EF72E080E80E94AB040E94E905DC010C
:100C200012960D911C910115110589F0D801ED91D5
:100C3000FC910280F381E02DBE016F5F7F4FC80100
:100C4000099597FD04C0F80100851185ECCF8981D5
:100C50000F90DF91CF911F910F910895CF93DF9364
:100C6000FC01DB01818114963C911497682F630F7E
:100C70007727771F683071059CF5C281D381209753
:100C800039F5B383A283908112969C9312971396A1
:100C90008C93139715968C911597890F808390E00C
:100CA00080E0831708F52181C22FD0E0BE0160509B
:100CB0007F4F16964D915C911797480F591FEA0187
:100CC0004881EB0148832F5F21830196EACFEA0137
:100CD0004885598541155105D1F7B987A887D3CFE4
:100CE00080E0DF91CF91089581E0FBCFCF93DF9338
:100CF000EC0180911201882331F083E00E94E2042C
:100D00001816190634F081E090E09B838A8380E016
:100D100090E0DF91CF910895CF93DF931F92CDB7ED
:100D2000DEB76983DC01ED91FC910280F381E02D57
:100D300041E050E0BE016F5F7F4F09950F90DF915A
:100D4000CF91089583E08093E9008091F200882399
:100D500019F08AE38093E800089583E00E94D104AB
:100D600090E00895CF93DF931F92CDB7DEB7FC01DB
:100D70008485958597FD08C02FEF3FEF3587248741
:100D80000F90DF91CF910895CE0101960E94DF026E
:100D9000019719F4898190E0F3CF8FEF9FEFF0CFA7
:100DA0000F931F93CF93DF931F92CDB7DEB78C01C4
:100DB000FC018485958597FF0BC0CE0101960E94AA
:100DC000DF02019771F4898190E0F80195878487AB
:100DD000F801848595850F90DF91CF911F910F9138
:100DE00008958FEF9FEFF1CFFC018485958597FDE6
:100DF0000BC09FB7F89482E08093E9008091F200E5
:100E00009FBF90E0019608959FB7F89482E0809389
:100E1000E9008091F2009FBF90E00895DC01FB01A2
:100E200012962C911297848195812817190641F406
:100E300091818081813A31F49D7F81E0913009F088
:100E400080E008958132E1F79B3029F482811F967A
:100E50008C9381E008959A3099F7828150968C9313
:100E6000F8CFAF92BF92CF92DF92EF92FF920F93A3
:100E70001F93CF93DF931F92CDB7DEB77C016983B9
:100E80006A01590141E050E0BE016F5F7F4FFC01F4
:100E900083810E94E2048C0197FD0BC0F7018381DE
:100EA000A501B60180640E94E204080F191F97FD96
:100EB0008C01C8010F90DF91CF911F910F91FF908E
:100EC000EF90DF90CF90BF90AF900895DC01FB01D1
:100ED00088E4808389E4818384E482831D969C91E5
:100EE0001D979F709F5B93831D968D919C9124E02D
:100EF000969587952A95E1F78F708F5B848385E0BF
:100F00000895EF92FF920F931F93CF93DF93FB010E
:100F10002081213871F52381223259F5DC011296A6
:100F20004C91248135814217130619F5EC010B858C
:100F30001C85F12CE12C0115110589F0F801448183
:100F400055816281738180E80E94AB048F3F9807CE
:100F500049F0E80EF91ED8010D911C91ECCF81E00B
:100F60008F87C701DF91CF911F910F91FF90EF9075
:100F7000089590E080E0F6CFCF93DF93CDB7DEB752
:100F800069970FB6F894DEBF0FBECDBFFC01DB0141
:100F90008C918F5F8C939E012D5F3F4F8DE0D90127
:100FA0001D928A95E9F729E0298384E08A8391E0FC
:100FB0009D8383E08E832A8721E22B879C879D87F0
:100FC0009F8722E2288B27E02B8B25E02C8B8E8BB2
:100FD00020E430E0388F2F8B998F82818B83958529
:100FE0008685998B8A8B838180688D8B49E150E05F
:100FF000BE016F5F7F4F80E00E94AB0469960FB621
:10100000F894DEBF0FBECDBFDF91CF910895CF938F
:101010008091230281112CC0C1E0C0931602C093BD
:1010200017028CE192E090931902809318021092BB
:101030001B0210921A0288E391E0909313028093AE
:10104000120210921E0210921D02109220021092A3
:101050001F02C0932102C093220281EC80931C02E4
:101060000E94E90562E172E00E942E06C09323020D
:1010700082E192E0CF910895CF93DF93EC01FB01E1
:101080002A81848195812817190609F04BC0818136
:101090009081913A79F4813029F0833039F48F8945
:1010A0008093F10081E0DF91CF9108958230D1F5F6
:1010B000888DF6CF9132B1F58B3019F482818F8B08
:1010C000F1CF8A3019F48381888FECCF893051F5C4
:1010D000668177818381833079F48C8D9D8D68174B
:1010E000790701F58A8D9B8D0E9489058C8D9D8DD8
:1010F00090689D8F8C8FD6CF823051F4613071050E
:1011000089F461E070E0CE0149960E948905CACF5A
:10111000813041F46830710529F468E070E0CE0157
:101120000E96F3CF80E0BFCFCF93DF93CDB7DEB77E
:1011300029970FB6F894DEBF0FBECDBFFC014281E8
:10114000FB01248135814217130659F5208121388E
:1011500041F523812132D1F489E0EBE2F1E0DE01B7
:10116000119601900D928A95E1F749E050E0BE0199
:101170006F5F7F4F80E00E94AB0429960FB6F89412
:10118000DEBF0FBECDBFDF91CF910895223249F46B
:1011900021E0FC01278B45E450E06CEA72E080E836
:1011A000EACF90E080E0E9CFCF93DF93CDB7DEB711
:1011B00069970FB6F894DEBF0FBECDBFFC01DB010F
:1011C0009C919F5F9C939E012D5F3F4F81E1D901D0
:1011D0001D928A95E9F729E0298384E08A8391E0CA
:1011E0009D8383E08E839F8398872A8721E22B87C4
:1011F0009C879D879F8722E2288B25E4298B27E007
:101200002B8B25E02C8B8E8B20E430E0388F2F8BBE
:10121000998F82818B83838180688D8B49E150E037
:10122000BE016F5F7F4F80E00E94AB0469960FB6EE
:10123000F894DEBF0FBECDBFDF91CF910895FC01C2
:1012400082818F5BFB01808381E00895CF93DF93E0
:10125000EC010E940708AE014C5F5F4F28E030E0D0
:1012600062E0DF91CF910C943107089590E080E027
:1012700008950F931F93CF93DF93EB018A010E9490
:1012800007089801AE0164E0DF91CF911F910F91A3
:101290000C943107CF93DF93EC01E2EEF2E090E0A3
:1012A00080E0219131910196232B41F5880F991F00
:1012B000FC01E052FD4FD183C08348E050E062EE74
:1012C00072E080EE92E00E943909E0EEF2E088EEF2
:1012D00092E022813381C217D30711F41382128264
:1012E00032968E179F07A9F748E050E062EE72E051
:1012F00080EE92E0DF91CF910C9439098430910512
:1013000081F6DBCFFC019C01285F3F4F90E080E03D
:1013100044814111019614823196E217F307C1F717
:101320000895CF93DF9386EC92E00E948209EC014E
:10133000892B21F086EC92E00E942609CE01DF91F4
:10134000CF910895CF93DF93DC0190E2960F983010
:10135000B0F414968C91149721E030E001C0220F74
:101360009A95EAF7442341F0282B14962C9381E0B8
:1013700090E0DF91CF91089520952823F6CFFD01CD
:1013800036964423D1F0CD010C96EF0129916217D6
:1013900071F3C817D907D1F790E080E021912111AE
:1013A00005C0A80FB91F16966C93E1CF0196863041
:1013B0009105A1F790E080E0DCCF90E080E0219102
:1013C000621305C0A80FB91F16961C92D0CF0196C4
:1013D00086309105A1F7EECFCF93DF9341E0682FE0
:1013E00086EC92E00E94A209EC01892B21F086ECA8
:1013F00092E00E942609CE01DF91CF910895CF920D
:10140000DF92FF920F931F93CF93DF938C01F42E03
:10141000E62FF0E0EE0FFF1FE455FF4FC590D4908C
:10142000D801ED91FC910484F585E02D6C2DC80167
:101430000995EC01892B11F4F11070C0D0FE0CC09D
:10144000D801ED91FC910484F585E02D4F2D60EEDF
:10145000C8010995C82BD92BD1FE0CC0D801ED913C
:10146000FC910484F585E02D4F2D61EEC8010995AE
:10147000C82BD92BD2FE0CC0D801ED91FC9104846D
:10148000F585E02D4F2D62EEC8010995C82BD92BAB
:10149000D3FE0CC0D801ED91FC910484F585E02DBC
:1014A0004F2D63EEC8010995C82BD92BD4FE0CC073
:1014B000D801ED91FC910484F585E02D4F2D64EE6B
:1014C000C8010995C82BD92BD5FE0CC0D801ED91C8
:1014D000FC910484F585E02D4F2D65EEC80109953A
:1014E000C82BD92BD6FE0CC0D801ED91FC910484F9
:1014F000F585E02D4F2D66EEC8010995C82BD92B37
:10150000D7FE0CC0D801ED91FC910484F585E02D47
:101510004F2D67EEC8010995C82BD92BCE01DF915D
:10152000CF911F910F91FF90DF90CF9008950F936F
:101530001F93CF93DF93EC0141E00E94FF098C01E0
:10154000892B39F0E881F9810284F385E02DCE0101
:101550000995C801DF91CF911F910F910895FF92D6
:101560000F931F93CF93DF93EC01F62E0E94970AFF
:101570008C01892B71F040E06F2DCE010E94FF0994
:10158000892B39F0E881F9810284F385E02DCE01C1
:101590000995C801DF91CF911F910F91FF90089598
:1015A000CF93C82F80EE0E94EC0981EE0E94EC09D7
:1015B0006C2F86EC92E0CF910C94970ACF93DF9337
:1015C000EC0183EE0E94EC0962E786EC92E00E9457
:1015D000970A68EC70E080E090E00E940D040E94A1
:1015E000910964EF71E080E090E00E940D04FE013B
:1015F00001900020E9F73197AF014C1B5D0BBE0154
:1016000086EC92E00E94BC0568EC70E080E090E01F
:101610000E940D0488E20E94EC09DF91CF910C94A6
:1016200091091F920F920FB60F9211242F933F939F
:101630008F939F93AF93BF938091460290914702FF
:10164000A0914802B091490230913F0223E0230F5C
:101650002D3758F50196A11DB11D20933F028093AF
:10166000460290934702A0934802B09349028091AA
:10167000400290914102A0914202B0914302019632
:10168000A11DB11D8093400290934102A09342029C
:10169000B0934302BF91AF919F918F913F912F9152
:1016A0000F900FBE0F901F90189526E8230F0296FB
:1016B000A11DB11DD2CF1F920F920FB60F92112410
:1016C0008F939F938091E1009091E100937F90939D
:1016D000E10083FF0FC01092E90091E09093EB00CE
:1016E0001092EC0092E39093ED001092450298E086
:1016F0009093F00082FF22C093E09093E9009091D4
:10170000F200992319F09AE39093E80090913C023B
:10171000992341F090913C02915090933C02911199
:1017200001C05D9A90914402992341F09091440246
:10173000915090934402911101C0289A84FF18C0DF
:101740008091E2008E7E81608093E2008091E100D2
:101750008F7E8093E10080913D028E7E8061809338
:101760003D029F918F910F900FBE0F901F90189583
:1017700080FFF7CF8091E2008E7E80618093E2004F
:101780008091E1008E7E8093E10080913D028E7E0B
:101790008160E5CF1F920F920FB60F921124CF9266
:1017A000DF92EF92FF920F931F932F933F934F93EC
:1017B0005F936F937F938F939F93AF93BF93EF93B9
:1017C000FF93CF93DF93CDB7DEB76C97DEBFCDBF6E
:1017D0001092E9008091E80083FF25C068E0CE0107
:1017E00045960E947C0582EF8093E8008D8987FFF3
:1017F00039C09091E80090FFFCCF982F907609F0C7
:1018000034C19E894F89588D2F89F88C911131C030
:10181000803861F580913E028093F1001092F100D2
:101820008EEF8093E8006C960FB6F894DEBF0FBE83
:10183000CDBFDF91CF91FF91EF91BF91AF919F917C
:101840008F917F916F915F914F913F912F911F9158
:101850000F91FF90EF90DF90CF900F900FBE0F9001
:101860001F9018959EEF9093E800C7CF1092F1005B
:10187000D5CF913059F48111D3CF4130510581F644
:1018800080913E028D7F80933E02CACF933049F40F
:101890008111C6CF4130510519F680913E02826018
:1018A000F2CF953041F48091E80080FFFCCF2068B2
:1018B0002093E300B5CF963009F0A9C00B8D1C8DA5
:1018C00022E01092E90010923A0210923902F212CC
:1018D0002EC010923802109237020E94FD051F821E
:1018E00099E09983FA8291E09E8390EA98879AEF33
:1018F00099872091390230913A02275F3F4F3C830C
:101900002B838D831092E90010923A0210923902D3
:10191000109338020093370249E050E0BE016F5F38
:101920007F4F80E00E94AB040E94FD0579CF1093A9
:101930003802009337020E94E905DC0112960D91EE
:101940001C910115110509F44BC1D801ED91FC91D1
:101950000480F581E02DBE016B5E7F4FC8010995C3
:10196000009709F038C1F80100851185EACFF3E04E
:10197000FF120EC08F89882309F440C0823061F4C1
:1019800040E860E185E593E00E947804811148CF4A
:1019900081E28093EB0047CF813029F440E86BE08F
:1019A00089E493E0F1CF833099F70E94E905DC01E7
:1019B0001296ED90FC908E010F5F1F4F6801E114AD
:1019C000F10479F0D701ED91FC910680F781E02DCB
:1019D000B801C7010995080F111DF701E084F184D2
:1019E000EECFD8011C92F60101900020E9F7319763
:1019F000BF016C197D0940E0C601C6CF63E373E007
:101A0000FB01449150E080E80E94AB0409CF97307D
:101A100009F4BECF983021F481E08093F10000CF2B
:101A2000993009F0FDCE837009F0B2CFE1E0F1E02A
:101A300081E031E096E32191222371F08093E90067
:101A40003093EB00DF0111972C912093EC009093E1
:101A5000ED008F5F873079F78EE78093EA00109270
:101A6000EA008F8980934502DBCE8B8D9C8D10928E
:101A7000E90010923A021092390290933802809352
:101A80003702898D81118CC08E899D89913A49F4E4
:101A9000813209F07DCF47E050E06BE071E080E0FB
:101AA000B3CF913209F074CF833269F48F89988D66
:101AB000B0E0A0E08093070190930801A093090192
:101AC000B0930A01ADCE803239F467E070E08BE06C
:101AD00091E00E948905A4CE823209F0A1CE8F89BF
:101AE00080931201EEEFFFE7859194918B3F9C4D1F
:101AF00051F1E0E0F8E080910B0190910C01A09190
:101B00000D01B0910E01803B9440A105B105F1F4A7
:101B10008091120180FD1AC0EE3F8AE0F80789F536
:101B200087E797E7918380838091600080933B02F1
:101B300088E19BE00FB6F894A895809360000FBEF3
:101B4000909360006DCEEEEFFAE0D5CF8081918169
:101B50008737974709F064CEA89580916000886127
:101B60008093600080913B0280936000EE3F2AE00A
:101B7000F20789F08091FE0A9091FF0A9183808399
:101B80004FCE808191818737980751F29093FF0A59
:101B90008093FE0AC5CF1092FF0A1092FE0A40CE33
:101BA0000E94E905DC0112960D911C9101151105A9
:101BB00009F4EECED801ED91FC910190F081E02D79
:101BC000BE016B5E7F4FC8010995811129CEF801D6
:101BD00000851185EBCF181619060CF421CED8CE4E
:101BE000F1E0FF12C4CE67E373E00ACFBC01625F8D
:101BF0007F4FFC01838148E050E080640C94E20454
:101C00000A970C94F60DCF9310924D0210924C024D
:101C100088EE93E0A0E0B0E080934E0290934F02F4
:101C2000A0935002B093510284E491E090934B0250
:101C300080934A028FEF9FEF909357028093560252
:101C4000C1E0C0939E02C0939F0280EB92E090930C
:101C5000A1028093A0021092A3021092A2021092FD
:101C6000A7021092A60286E591E090939B028093D2
:101C70009A0284E691E09093A5028093A402C09317
:101C8000B102C093B2021092B3021092B502109248
:101C9000B4021092B7021092B60281EC8093B002A7
:101CA0000E94E9056AE972E00E942E061092C902BC
:101CB0001092C80286E791E09093C7028093C60213
:101CC0008091BE02811112C01092B9021092B80226
:101CD0008DEE93E09093BB028093BA028BE390E089
:101CE0009093BD028093BC02C093BE020E9407087D
:101CF000FC01A385B485109709F08EC088EB92E0B3
:101D000094878387858596852091BC023091BD029A
:101D1000820F931F9687858788E891E09093E10270
:101D20008093E0028091D802811113C01092D302F7
:101D30001092D20288E294E09093D5028093D4026C
:101D400089E190E09093D7028093D60281E080935E
:101D5000D8020E940708FC01A385B485109709F0FA
:101D600066C082ED92E09487838785859685209171
:101D7000D6023091D702820F931F968785871092E3
:101D8000EC021092F0021092EF021092F1028EE833
:101D900091E09093EB028093EA02E6E0F3E0108298
:101DA000148213821582369683E0E234F807B9F77D
:101DB00087E191E090934D0380934C0383E191E0A0
:101DC00090934F0380934E0384E08093500380935D
:101DD00051038BE191E090934B0380934A038AE097
:101DE00090E0909353038093520384EF91E090939B
:101DF0005503809354031092580310925703109286
:101E00004603109247031092480310924903109220
:101E10005603CF910895DC018D919C911197009705
:101E2000D1F788EB92E08D939C936CCFDC018D9180
:101E30009C9111970097D1F782ED92E08D939C933E
:101E400094CF789484B5826084BD84B5816084BD6C
:101E500085B5826085BD85B5816085BD80916E0048
:101E6000816080936E001092810080918100826079
:101E700080938100809181008160809381008091B6
:101E800080008160809380008091910082608093C7
:101E900091008091910081608093910080919000E9
:101EA0008160809390008091C10084608093C10024
:101EB0008091C10082608093C1008091C1008160E7
:101EC0008093C1008091C30081608093C3008091A2
:101ED000C00082608093C0008091C20081608093C6
:101EE000C20080917A00846080937A0080917A00A9
:101EF000826080937A0080917A00816080937A007A
:101F000080917A00806880937A0010924502109246
:101F10003E0210923D028091D70081608093D700ED
:101F200080EA8093D80089B5806189BD89B58260D7
:101F300089BD09B400FEFDCF61E070E080E090E073
:101F40000E940D048091D8008F7C80618093D8001E
:101F50008091E000807F8093E0008091E1008E7EA0
:101F60008093E1008DE08093E200559A209A8FEFF4
:101F70009FEF909357028093560286EC92E00E9466
:101F8000820986EC92E00E94260984EA92E00E948F
:101F9000820984EA92E00E94000EE2EEF2E088E01C
:101FA000DF011D928A95E9F748E050E0BF0180EE1D
:101FB00092E00E943909412C512C3201439488242B
:101FC0008A94982C50E0C52E50E0D52EB1E0B09305
:101FD00056038FB7F89440914602509147026091A2
:101FE0004802709149028FBF809146039091470348
:101FF000A0914803B0914903481B590B6A0B7B0B16
:102000008091520390915303B0E0A0E084179507AC
:10201000A607B70708F013C1C0E080915003C817A6
:1020200060F4E0914C03F0914D03EC0FF11D62E080
:1020300080810E94AC03CF5FF0CF312C809151039F
:10204000381608F05FC0032D10E0E0914E03F091C8
:102050004F03E00FF11F61E080810E94AC03E0912B
:102060004E03F0914F03E00FF11F60E080810E946A
:102070007E03D301C201032C04C0880F991FAA1F3D
:10208000BB1F0A94D2F75C017C01E094F094212CF0
:10209000809150032816F8F4C22DD0E0E0914C0353
:1020A000F0914D03EC0FFD1F80810E945503249693
:1020B000CC0FDD1FC651DD4F892B41F488819981FA
:1020C0008A299B29998388832394E2CF88819981E7
:1020D0008E219F21F7CFE0914E03F0914F03E00F47
:1020E000F11F61E080810E947E0380914E039091F8
:1020F0004F03080F191F60E0F80180810E94AC03B4
:1021000033949CCF0AEE12E0E8018F8D98A1892BC1
:1021100021F41C8E9E8E8D8E19A22696F3E0C63277
:10212000DF0799F7B12C80915003B81608F053C01F
:10213000A12CEB2CF12CEE0CFF1CC7018E509D4FF7
:102140007C0120915103A21608F043C0D7016D9184
:102150007C910A2C02C0769567950A94E2F7B29EAC
:10216000900111242A0D311DEAEEF2E080E0458D48
:10217000568D2417350709F4E8C08F5F36968A30EC
:10218000B1F760FF24C0EAEEF2E090E080E0448D19
:10219000411118C0E0914A03F0914B03E20FF31F85
:1021A0004081B6E0B89FF001B99FF00D1124E651CF
:1021B000FD4F448F368F258F10A2178E61E00E944D
:1021C0006F0205C0019636968A30910501F7A394F7
:1021D000B8CFB394A8CF80E0F80191A19111892FD5
:1021E0000A5F1F4FC017D107B9F79FB7F894409106
:1021F00046025091470260914802709149029FBF88
:1022000040934603509347036093480370934903F8
:102210008823A9F080910B03882389F0809109031A
:1022200090910A03019759F4C0910603C1110AC0A5
:10223000C114D10409F4CACE0E940000C7CE109286
:102240005603F6CF6C2F8AE492E00E948C0642E09F
:1022500050E064E971E08AE492E00E947606EDEDD8
:10226000EC0FE23208F02DC00E2E000CFF0BE55CE7
:10227000FE4E0C94A7119911611161116111611148
:10228000611161119311611161116111611161118C
:1022900097115D116A116D117311701176117C1116
:1022A000811183116111611161116111611161115C
:1022B000611161117A118811A2118AEE90E00E94D9
:1022C0004A0964E670E080E090E00E940D040E94FC
:1022D0009109AECF89EE90E0F2CF8DEC90E0EFCF98
:1022E00080EE0E94EC0982EE0E94EC098BE20E94D3
:1022F000EC09E7CF88E2FBCF80EE0E94EC0980E595
:10230000F6CF8CE2F4CF80EE0E94EC098FE4EFCFA1
:1023100080EE0E94EC0982EE0E94EC0987E991E0D0
:102320000E94DE0ACECF8DE60E94D00ACACF84E694
:10233000FBCF80EE0E94EC096BE686EC92E00E94F7
:10234000970ABFCF88EC91E0EBCF617038CFEE0FEA
:0E235000FF1F0590F491E02D0994F894FFCF43
:10235E0000C18081000000FFFFFFFF00E1000000D0
:10236E000000000607080902030405313233413428
:10237E00353642373839432A3023440921010100CA
:10238E0001224500000000000E07BC07810766070A
:10239E00000000008C067606AD06A206F406B20614
:1023AE00D006000000003C08D40894081F09F60D62
:1023BE00F6FF0000AF0ABC05360935098209000E8A
:1023CE00A20900000000AF0ABC05360935098209D2
:1023DE002609A209000000003909000000003F0490
:1023EE00430447040D0A00433A5C55736572735CEF
:1023FE0054656F5C417070446174615C526F616DC5
:10240E00696E675C53706F746966795C53706F7434
:10241E006966792E65786500433A5C55736572730B
:10242E005C54656F5C417070446174615C4C6F63A9
:10243E00616C5C446973636F72645C557064617443
:10244E00652E657865202D2D70726F6365737353DD
:10245E007461727420446973636F72642E6578655B
:02246E0000006C
:00000001FF
